:03000300011700E2
:10002E001203111200211200281202CF1202EF4306
:05003E00A8800203038D
:0603110075B28C00002211
:1000ED00AF177E007C037DE8120267AD07E4FF12B7
:1000FD00020EE51775F0648475F00A84ADF07F018A
:10010D0012020EE51775F00A8475F00A84ADF07FC2
:10011D000212020EE51775F00A84ADF07F0312028C
:10012D000E53B178E518B401F8E4F518120056EF46
:10013D0060EFAF177E007C037DE8120267AD07E428
:10014D00FF12020EE51775F0648475F00A84ADF0A8
:10015D007F0112020EE51775F00A8475F00A84AD61
:10016D00F07F0212020EE51775F00A84ADF07F03E1
:05017D0012020E80AC2F
:0603170012002E0200EDB1
:0400060002130000E1
:07002100E4F5C843C9802289
:0100280022B5
:1002BC0075CCC075CDFF85CCCA85CDCB43A820436A
:0302CC00C8042241
:0702FC0053A8DF53C8FB22E9
:03002B000200438D
:10004300C0E053C87F0514E51470020513D0E032F5
:0D000A000B085F503D79726B6F517F7B00DA
:1002CF0075ABCF75AA0643BCE075BDFF43BE0322D5
:10020E0075F701EF60046401702074082DF8E65450
:10021E000FFEEF25E02415F8EEF274082DF8E6C473
:10022E00540FFEEF25E024168028EF64026005EFE0
:10023E006403702174082DF8E6540FFEEF25E024B8
:10024E0016F8EEF274082DF8E6C4540FFEEF25E012
:09025E002417F8EEF2E4F5F72292
:03001700011800CD
:0D02EF0053E2FE43EA0143E88000000022D4
:0703030043A90843BA0122DF
:07030A0053A9F753BAFE22CC
:030053000202DFC7
:1002DF00C0E0E5D830E00653D8FE751801D0E03203
:06001A00011500011600B3
:1000560012030AE4F513F5141202BC2090FD1202F5
:10006600FCC3E5149411E51394004018D3E51494E9
:1000760017E5139400500DE5157066751501F51713
:10008600F516805DC3E5149407E51394004023D369
:10009600E514940CE51394005018E51564017041BD
:1000A600AF1604A807088002C333D8FC421705160A
:1000B600802FC3E5149401E51394004024D3E5147E
:1000C6009405E51394005019E515B40114E516C31B
:1000D6009408400BE4F515F5161203037F0122057B
:0700E600161203037F002244
:0300000002018278
:0C018200787FE4F6D8FD7581180201C9F1
:10026700BC000BBE0029EF8DF084FFADF022E4CC7B
:10027700F875F008EF2FFFEE33FEEC33FCEE9DEC44
:10028700984005FCEE9DFE0FD5F0E9E4CEFD22ED8A
:10029700F8F5F0EE8420D21CFEADF075F008EF2FD4
:1002A700FFED33FD4007985006D5F0F222C398FDC5
:0502B7000FD5F0EA2262
:10018E00020317E493A3F8E493A34003F68001F26D
:10019E0008DFF48029E493A3F85407240CC8C33372
:1001AE00C4540F4420C8834004F456800146F6DF41
:1001BE00E4800B0102040810204080900003E47ECE
:1001CE00019360BCA3FF543F30E509541FFEE49336
:1001DE00A360010ECF54C025E060A840B8E493A3FD
:1001EE00FAE493A3F8E493A3C8C582C8CAC583CA28
:1001FE00F0A3C8C582C8CAC583CADFE9DEE780BEE0
:0100200000DF
:00000001FF
