:03000300011700E2
:10002E0012054312002112002812050E120046433B
:08003E00E20243A8800205352F
:0605430075B28C000022DD
:10027F007F55120056751748AF177E007C037DE837
:10028F00120496AD07E4FF12043DE51775F0648480
:10029F0075F00A84ADF07F0112043DE51775F00A81
:1002AF008475F00A84ADF07F0212043DE51775F0F6
:1002BF000A84ADF07F0312043D53B178E518B40101
:1002CF00F8E4F51812031CEF60EFAF177E007C0304
:1002DF007DE8120496AD07E4FF12043DE51775F0B3
:1002EF00648475F00A84ADF07F0112043DE5177543
:1002FF00F00A8475F00A84ADF07F0212043DE51711
:0D030F0075F00A84ADF07F0312043D80AC50
:10005600E4FE53A87FD291000EBE03FB0000000011
:1000660000C2910000000000000000000000000037
:10007600EF30E71AD291E4FE000EBE01FB0000004D
:100086000000000000C29100000000008018D2911C
:1000960000000000000000000000000000C291E423
:1000A600FE000EBE01FB0000000000000000EF2570
:1000B600E0FF30E71AD291E4FE000EBE01FB00001D
:1000C600000000000000C29100000000008018D26D
:1000D6009100000000000000000000000000C29136
:1000E600E4FE000EBE01FB0000000000000000EF71
:1000F60025E0FF30E71AD291E4FE000EBE01FB00B8
:1001060000000000000000C29100000000008018FE
:10011600D29100000000000000000000000000C2B4
:1001260091E4FE000EBE01FB00000000000000008E
:10013600EF25E0FF30E71AD291E4FE000EBE01FB88
:100146000000000000000000C291000000000080D6
:1001560018D291000000000000000000000000001E
:10016600C291E4FE000EBE01FB000000000000008C
:1001760000EF25E0FF30E71AD291E4FE000EBE0143
:10018600FB0000000000000000C29100000000001B
:100196008018D2910000000000000000000000005E
:1001A60000C291E4FE000EBE01FB0000000000004C
:1001B6000000EF25E0FF30E71AD291E4FE000EBE04
:1001C60001FB0000000000000000C29100000000DA
:1001D600008018D29100000000000000000000001E
:1001E6000000C291E4FE000EBE01FB00000000000C
:1001F600000000EF25E0FF30E71AD291E4FE000E82
:10020600BE01FB0000000000000000C291000000DB
:1002160000008018D29100000000000000000000DD
:10022600000000C291E4FE000EBE01FB00000000CB
:1002360000000000EF25E0FF30E71AD291E4FE004F
:100246000EBE01FB0000000000000000C29100008D
:100256000000008018D2910000000000000000009D
:1002660000000000C291E4FE000EBE01FB0000008B
:08027600000000000043A88015
:01027E00225D
:0605490012002E02027FE9
:0400060002130000E1
:07002100E4F5C843C9802289
:0100280022B5
:1004EB0075CCC075CDFF85CCCA85CDCB43A8204339
:0304FB00C8042210
:07052E0053A8DF53C8FB22B4
:03002B000204FECE
:1004FE00C0E053C87F0514E51470020513D0E03236
:0D000A000B085F503D79726B6F517F7B00DA
:10050E0075ABCF75AA0643BCE075BDFF43BE032293
:10043D0075F701EF60046401702074082DF8E6541F
:10044D000FFEEF25E02415F8EEF274082DF8E6C442
:10045D00540FFEEF25E024168028EF64026005EFAF
:10046D006403702174082DF8E6540FFEEF25E02487
:10047D0016F8EEF274082DF8E6C4540FFEEF25E0E1
:09048D002417F8EEF2E4F5F72261
:03001700011800CD
:0D00460053E2FE43EA0143E880000000227F
:0705350043A90843BA0122AB
:07053C0053A9F753BAFE2298
:0300530002051E85
:10051E00C0E0E5D830E00653D8FE751801D0E032C1
:06001A00011500011600B3
:10031C0012053CE4F513F5141204EB2090FD1205C4
:10032C002EC3E5149411E51394004018D3E51494EE
:10033C0017E5139400500DE5157064751501F5174C
:10034C00F516805BC3E5149407E51394004023D3A2
:10035C00E514940CE51394005018E5156401703FF6
:10036C00AF1604A807088002C333D8FC4217051641
:10037C00802DC3E5149401E51394004022D3E514B9
:10038C009405E51394005017E515B40112E516B465
:10039C00080BE4F515F5161205357F01220516122A
:0503AC0005357F002271
:030000000203B147
:0C03B100787FE4F6D8FD7581180203F88F
:10049600BC000BBE0029EF8DF084FFADF022E4CC4A
:1004A600F875F008EF2FFFEE33FEEC33FCEE9DEC13
:1004B600984005FCEE9DFE0FD5F0E9E4CEFD22ED59
:1004C600F8F5F0EE8420D21CFEADF075F008EF2FA3
:1004D600FFED33FD4007985006D5F0F222C398FD94
:0504E6000FD5F0EA2231
:1003BD00020549E493A3F8E493A34003F68001F208
:1003CD0008DFF48029E493A3F85407240CC8C33341
:1003DD00C4540F4420C8834004F456800146F6DF10
:1003ED00E4800B0102040810204080900003E47E9D
:1003FD00019360BCA3FF543F30E509541FFEE49305
:10040D00A360010ECF54C025E060A840B8E493A3CB
:10041D00FAE493A3F8E493A3C8C582C8CAC583CAF6
:10042D00F0A3C8C582C8CAC583CADFE9DEE780BEAE
:0100200000DF
:00000001FF
